:020000040000FA
:04000000D7EF00F046
:08000800FFFF056ED8CF06F0E2
:10001000E950076EEA50086EE150096EE2500A6E30
:10002000D9500B6EDA500C6EF350146EF450156EFE
:10003000E0500D6E000100500F6E0150106E025026
:10004000116E0350126E0450136E9DAA2BEF00F038
:100050009EBA4CEF00F00F50006E1050016E115020
:10006000026E1250036E1350046E0D50E06E0D8E32
:100070000750E96E0850EA6E0950E16E0A50E26ED0
:100080000B50D96E0C50DA6E1450F36E1550F46E9E
:10009000055006C0D8FF1000FFFF9EAA4DEF00F0EC
:1000A000AE50176E17507108D8A459EF00F0010E2A
:1000B0004B6E17504008D8B076EF00F0175042084A
:1000C000D8A076EF00F01750410AD8B46EEF00F0D8
:1000D000030AD8B472EF00F076EF00F0010E836EE1
:1000E00076EF00F0020E836E76EF00F09E9A2BEF13
:1000F00000F0FFFFEA6A510EE96EEF50D8B48EEFC0
:1001000000F0060E016E006A002EFED7012EFBD70E
:100110007B0E006E002EFED7EF2EF3D7000CFFFFF4
:10012000FFFF016A026A006A036A5350D8A49DEF78
:1001300000F05250D8B4BAEF00F0100E546ED890C0
:1001400050365136003603365350035CD8A4ABEF1B
:1001500000F05250005CD8A0B5EF00F05250005EA5
:10016000D8A003065350035ED88001360236542EC1
:100170009FEF00F00000000CFFFFFFFF5150016AED
:10018000505CD8B0C8EF00F05050006ED5EF00F0D2
:10019000006A080E526E503600365150005CD8B0DE
:1001A000006E0136522ECBEF00F0000CFFFFFFFF78
:1001B000F86AD09E0D8EEA6AE96A060EC16E810E5B
:1001C000AF6E260EAC6E900EAB6E186A300E366EA9
:1001D000310E376E320E386E330E396E340E3A6E83
:1001E000350E3B6E360E3C6E370E3D6E380E3E6E53
:1001F000390E3F6E4A6A4B6A4C6A4D6A4E6A4F6AC4
:10020000C16AC19CC250380BC109C26E9698C69A89
:10021000949A94889496000EC66EC76ED190800E04
:10022000D56ECD6A000E016ECA6E000ECB6EB15057
:10023000480BB16E9D8AC00EF212800E946E000EB5
:10024000956EFF0E926E968096829684936E836A68
:10025000000E9EA829EF01F0AD6E836A186A18504F
:100260001308D8A04BEF01F0000E016EC250C70B6F
:100270000110C26E0C0E516E79EC00F0C284C2B453
:100280003FEF01F0C450196E19504C26000E4D225C
:10029000182A2FEF01F04DC051F04CC050F0536AB6
:1002A000140E526E90EC00F001C019F04D6A4C6AC9
:1002B000186A18501308D8A075EF01F0080E016EE7
:1002C000C250C70B0110C26E0C0E516E79EC00F0DB
:1002D000C284C2B469EF01F0C4501A6E1A504C26A1
:1002E000000E4D22182A59EF01F04DC051F04CC0BC
:1002F00050F0536A140E526E90EC00F001C01AF0E8
:100300004D6A4C6A186A18501308D8A09FEF01F084
:10031000180E016EC250C70B0110C26E0C0E516E4A
:1003200079EC00F0C284C2B493EF01F0C4501B6EAC
:100330001B504C26000E4D22182A83EF01F04DC0B1
:1003400051F04CC050F0536A140E526E90EC00F015
:1003500001C01BF04D6A4C6A186A18501308D8A0E7
:10036000C9EF01F0200E016EC250C70B0110C26E22
:100370000C0E516E79EC00F0C284C2B4BDEF01F0F6
:10038000C4501D6E1D504C26000E4D22182AADEF94
:1003900001F04DC051F04CC050F0536A140E526E33
:1003A00090EC00F001C01DF04D6A4C6A050E506ED5
:1003B000F00E516E79EC00F0502EFAD74B2C68EF0E
:1003C00003F019C050F0640E516EBDEC00F001C096
:1003D00040F019C050F00A0E516EBDEC00F001C0A3
:1003E00041F041C050F00A0E516EBDEC00F000C06B
:1003F00041F019C050F00A0E516EBDEC00F000C083
:1004000042F0036A4050360FE96E000E0320EA6E98
:10041000EF50406E036A4150360FE96E000E032024
:10042000EA6EEF50416E036A4250360FE96E000EDD
:100430000320EA6EEF50426E630E9EA81DEF02F09D
:10044000AD6E630E9EA822EF02F0AD6E3A0E9EA82E
:1004500027EF02F0AD6E40509EA82CEF02F0AD6E7B
:1004600041509EA831EF02F0AD6E42509EA836EF8B
:1004700002F0AD6E3A0E9EA83BEF02F0AD6E1AC0D0
:1004800050F0640E516EBDEC00F001C040F01AC097
:1004900050F00A0E516EBDEC00F001C041F041C0B9
:1004A00050F00A0E516EBDEC00F000C041F01AC0D1
:1004B00050F00A0E516EBDEC00F000C042F0036A2D
:1004C0004050360FE96E000E0320EA6EEF50406E8A
:1004D000036A4150360FE96E000E0320EA6EEF50BA
:1004E000416E036A4250360FE96E000E0320EA6E39
:1004F000EF50426E40509EA87BEF02F0AD6E41502F
:100500009EA880EF02F0AD6E42509EA885EF02F0EB
:10051000AD6E3A0E9EA88AEF02F0AD6E1BC050F091
:10052000640E516EBDEC00F001C040F01BC050F0F5
:100530000A0E516EBDEC00F001C041F041C050F018
:100540000A0E516EBDEC00F000C041F01BC050F02F
:100550000A0E516EBDEC00F000C042F0036A40503C
:10056000360FE96E000E0320EA6EEF50406E036A0C
:100570004150360FE96E000E0320EA6EEF50416ED7
:10058000036A4250360FE96E000E0320EA6EEF5008
:10059000426E40509EA8CAEF02F0AD6E41509EA838
:1005A000CFEF02F0AD6E42509EA8D4EF02F0AD6ED8
:1005B0003A0E9EA8D9EF02F0AD6E1DC050F0640E49
:1005C000516EBDEC00F001C040F01DC050F00A0EAD
:1005D000516EBDEC00F001C041F041C050F00A0E78
:1005E000516EBDEC00F000C041F01DC050F00A0E8D
:1005F000516EBDEC00F000C042F0036A4050360F6F
:10060000E96E000E0320EA6EEF50406E036A41501F
:10061000360FE96E000E0320EA6EEF50416E036A5A
:100620004250360FE96E000E0320EA6EEF50426E24
:1006300040509EA819EF03F0AD6E41509EA81EEFEA
:1006400003F0AD6E42509EA823EF03F0AD6E3A0E5C
:100650009EA828EF03F0AD6E40509EA82DEF03F04A
:10066000AD6E41509EA832EF03F0AD6E42509EA891
:1006700037EF03F0AD6E3A0E9EA83CEF03F0AD6E7F
:10068000010E516E79EC00F0010E516E79EC00F024
:10069000010E516E79EC00F0010E516E79EC00F014
:1006A00081503F0B216E21509EA854EF03F0AD6E98
:1006B0000D0E9EA859EF03F0AD6E4B6A040E506EFE
:1006C000C80E516E79EC00F0502EFAD7DEEF01F033
:1006D000040E506EFA0E516E79EC00F0502EFAD7DF
:0606E00028EF01F0030009
:020000040030CA
:0E00000000220F0E000181000FC00FE00F4024
:00000001FF
;PIC18F452
