:020000040000FA
:040000009CEF01F080
:08000800FFFF056ED8CF06F0E2
:10001000E950076EEA50086EE150096EE2500A6E30
:10002000D9500B6EDA500C6EF350146EF450156EFE
:10003000E0500D6E000100500F6E0150106E025026
:10004000116E0350126E0450136E9DAA2BEF00F038
:100050009EBA4CEF00F00F50006E1050016E115020
:10006000026E1250036E1350046E0D50E06E0D8E32
:100070000750E96E0850EA6E0950E16E0A50E26ED0
:100080000B50D96E0C50DA6E1450F36E1550F46E9E
:10009000055006C0D8FF1000FFFF9EAA4DEF00F0EC
:1000A000AE50176E17504908D8B079EF00F01750CE
:1000B0004E08D8A079EF00F04A0E175CFB0FD8B0BD
:1000C00079EF00F0050F7CEF00F0010E836E79EF01
:1000D00000F0020E836E79EF00F0040E836E79EF6C
:1000E00000F0080E836E79EF00F0100E836E79EF4A
:1000F00000F09E9A2BEF00F0FFFFE824190FF66E38
:10010000010EF76ED8B0F72A0A00FFFFF550FA6E1D
:100110000800FFFFF550F96ECA00D200DA00E200D5
:10012000EA00FFFFEA6A750EE96EEF50D8B4A6EF59
:1001300000F0060E016E006A002EFED7012EFBD7DE
:100140007B0E006E002EFED7EF2EF3D7000CFFFFC4
:10015000FFFF800E946E8290190E756E91EC00F088
:100160008280310E006E002EFED700000000810E4E
:10017000946E33EF02F0FFFFFFFF310E006E002E92
:10018000FED700000000000E82B0010E000AD8A4C5
:10019000DDEF00F0850E006E002EFED7000E82B05F
:1001A000010E0108D8A4DDEF00F0530E006E002E02
:1001B000FED7010E016EDDEF00F035EF02F0FFFF1C
:1001C000FFFF776A6BA0E5EF00F0756A75500708CE
:1001D000D8A051EF01F0766A000E82B0010E000A3D
:1001E000D8A403EF01F0762A76506408D8B0FCEF6B
:1001F00000F06B8003EF01F0000000000000000041
:100200000000ECEF00F0310E006E002EFED7000073
:100210000000000E82B0010E000AD8A425EF01F004
:10022000070ED8807554786E010E006E7850016EFE
:10023000D8B420EF01F0D8900036012E1BEF01F06A
:100240000050FF0A77164EEF01F0070ED880755464
:10025000786E010E006E7850016ED8B435EF01F063
:10026000D8900036012E30EF01F000507712000ECA
:1002700082B0010E0108D8A44EEF01F0762A765024
:100280006408D8B047EF01F06B804EEF01F000003A
:10029000000000000000000037EF01F0752AE6EFD3
:1002A00000F07750016E000CFFFFFFFF016A026A49
:1002B000006A036A7A50D8A462EF01F07950D8B48A
:1002C0007FEF01F0100E7B6ED890773678360036CF
:1002D00003367A50035CD8A470EF01F07950005CCB
:1002E000D8A07AEF01F07950005ED8A003067A50CA
:1002F000035ED880013602367B2E64EF01F00000E9
:10030000000CFFFFFFFF7650016A755CD8B08DEFDF
:1003100001F07550006E9AEF01F0006A080E776EDA
:10032000753600367650005CD8B0006E0136772EF8
:1003300090EF01F0000CFFFFFFFFF86AD09E0D8EDA
:10034000EA6AE96A060EC16E810EAF6E260EAC6EC9
:10035000900EAB6E186A300E366E310E376E320E5E
:10036000386E330E396E340E3A6E350E3B6E360EE5
:100370003C6E370E3D6E380E3E6E390E3F6E496A4A
:100380004A6A4B6A4C6A4D6A4E6A540E4F6E650E4D
:10039000506E6D0E516E700E526E200E536E3D0EED
:1003A000546E200E556E300E566E576E2E0E586ED1
:1003B000300E596E200E5A6E5B6E5C6A520E5D6E88
:1003C000480E5E6E200E5F6E606E616E3D0E626E58
:1003D000200E636E300E646E656E2E0E666E300EED
:1003E000676E200E686E696E6A6AC16AC19CC250EF
:1003F000380BC109C26E9698C69A949A94889496BE
:10040000000EC66EC76ED190800ED56ECD6A000EFE
:10041000016ECA6E000ECB6EB150480BB16E9D8A54
:10042000C00EF212800E946E000E956EFF0E926E4C
:10043000968096829684936E836A806A846A816AC3
:100440004E6A4D6A4E52D8A45AEF06F04D50AE088F
:10045000D8A05AEF06F0836A140E756E91EC00F086
:100460006B90A8EF00F0BCEF00F00152D8B411EF90
:1004700003F0E0EC00F001C06EF0E0EC00F001C031
:100480006FF0E0EC00F001C06CF0E0EC00F001C0B7
:100490006DF0E0EC00F001C070F06BA052EF02F0E4
:1004A0000FEF03F06F506E246C246D24705CD8A4A1
:1004B0000FEF03F0726A6EC071F071C076F0756A6A
:1004C00075506F10716E7650726E746A6CC073F0F6
:1004D00073C076F0756A75506D10736E7650746ED9
:1004E00074507F08D8B083EF02F0FF0AD8A47EEFE3
:1004F00002F073500008D8B083EF02F02D0E556E55
:10050000749E85EF02F0300E556E74C078F073C0A3
:1005100077F07A6A640E796E55EC01F002C076F0DD
:1005200001C075F002C078F001C077F07A6A0A0E57
:10053000796E55EC01F00050766E300E7624566ED2
:1005400074C078F073C077F07A6A0A0E796E55EC51
:1005500001F002C076F001C075F002C078F001C071
:1005600077F07A6A0A0E796E55EC01F00050766EDB
:10057000300E7624576E74C078F073C077F07A6AC4
:100580000A0E796E55EC01F00050756E300E752430
:10059000596E72C078F071C077F07A6A640E796E25
:1005A00055EC01F002C076F001C075F002C078F0A1
:1005B00001C077F07A6A0A0E796E55EC01F00050AE
:1005C000766E300E7624646E72C078F071C077F06B
:1005D0007A6A0A0E796E55EC01F002C076F001C01D
:1005E00075F002C078F001C077F07A6A0A0E796E71
:1005F00055EC01F00050766E300E7624656E72C0B8
:1006000078F071C077F07A6A0A0E796E55EC01F0D5
:100610000050756E300E7524676E0FEF03F011EF0A
:1006200003F0186A18501308D8A02EEF03F0000E3C
:10063000016EC250C70B0110C26E0C0E756E91ECAC
:1006400000F0C284C2B422EF03F0C450196E1950F6
:100650004B26000E4C22182A12EF03F04CC078F003
:100660004BC077F07A6A140E796E55EC01F001C038
:1006700019F04C6A4B6A186A18501308D8A058EF42
:1006800003F0080E016EC250C70B0110C26E0C0EB3
:10069000756E91EC00F0C284C2B44CEF03F0C4500C
:1006A0001A6E1A504B26000E4C22182A3CEF03F00B
:1006B0004CC078F04BC077F07A6A140E796E55EC26
:1006C00001F001C01AF04C6A4B6A186A18501308FE
:1006D000D8A082EF03F0100E016EC250C70B0110BC
:1006E000C26E0C0E756E91EC00F0C284C2B476EF4F
:1006F00003F0C4501B6E1B504B26000E4C22182AD0
:1007000066EF03F04CC078F04BC077F07A6A140EB5
:10071000796E55EC01F001C01BF04C6A4B6A186A07
:1007200018504F08D8A0ACEF03F0200E016EC25055
:10073000C70B0110C26E0C0E756E91EC00F0C284F6
:10074000C2B4A0EF03F0C4501D6E1D504B26000E26
:100750004C22182A90EF03F04CC078F04BC077F091
:100760007A6A500E796E55EC01F001C01DF04C6AAA
:100770004B6A186A18501308D8A0D6EF03F0280E59
:10078000016EC250C70B0110C26E0C0E756E91EC5B
:1007900000F0C284C2B4CAEF03F0C4501E6E1E50F3
:1007A0004B26000E4C22182ABAEF03F04CC078F00A
:1007B0004BC077F07A6A140E796E55EC01F001C0E7
:1007C0001EF04C6A4B6A186A18501308D8A000EF44
:1007D00004F0300E016EC250C70B0110C26E0C0E39
:1007E000756E91EC00F0C284C2B4F4EF03F0C45013
:1007F0001F6E1F504B26000E4C22182AE4EF03F008
:100800004CC078F04BC077F07A6A140E796E55ECD4
:1008100001F001C01FF04C6A4B6A186A18501308A7
:10082000D8A02AEF04F0380E016EC250C70B011099
:10083000C26E0C0E756E91EC00F0C284C2B41EEF55
:1008400004F0C450206E20504B26000E4C22182A73
:100850000EEF04F04CC078F04BC077F07A6A140EBB
:10086000796E55EC01F001C020F04C6A4B6A670EBE
:100870009EA838EF04F0AD6E620E9EA83DEF04F026
:10088000AD6E3A0E9EA842EF04F0AD6E55509EA894
:1008900047EF04F0AD6E56509EA84CEF04F0AD6EDD
:1008A00057509EA851EF04F0AD6E3A0E9EA856EF39
:1008B00004F0AD6E300E9EA85BEF04F0AD6E645098
:1008C0009EA860EF04F0AD6E65509EA865EF04F041
:1008D000AD6E3A0E9EA86AEF04F0AD6E1BC075F0C7
:1008E000640E766E82EC01F001C040F01BC075F022
:1008F0000A0E766E82EC01F001C041F041C075F045
:100900000A0E766E82EC01F000C041F01BC075F05B
:100910000A0E766E82EC01F000C042F0036A40508D
:10092000360FE96E000E0320EA6EEF50406E036A48
:100930004150360FE96E000E0320EA6EEF50416E13
:10094000036A4250360FE96E000E0320EA6EEF5044
:10095000426E40509EA8AAEF04F0AD6E41509EA892
:10096000AFEF04F0AD6E42509EA8B4EF04F0AD6E50
:100970003A0E9EA8B9EF04F0AD6E1AC075F0640E81
:10098000766E82EC01F001C040F01AC075F00A0EDC
:10099000766E82EC01F001C041F041C075F00A0EA4
:1009A000766E82EC01F000C041F01AC075F00A0EBC
:1009B000766E82EC01F000C042F0036A4050360FC0
:1009C000E96E000E0320EA6EEF50406E036A41505C
:1009D000360FE96E000E0320EA6EEF50416E036A97
:1009E0004250360FE96E000E0320EA6EEF50426E61
:1009F00040509EA8F9EF04F0AD6E41509EA8FEEF66
:100A000004F0AD6E42509EA803EF05F0AD6E3A0EB5
:100A10009EA808EF05F0AD6E1DC075F0640E766EF1
:100A200082EC01F001C040F01DC075F00A0E766E38
:100A300082EC01F001C041F041C075F00A0E766E03
:100A400082EC01F000C041F01DC075F00A0E766E18
:100A500082EC01F000C042F0036A4050360FE96EAC
:100A6000000E0320EA6EEF50406E036A4150360FCD
:100A7000E96E000E0320EA6EEF50416E036A4250A9
:100A8000360FE96E000E0320EA6EEF50426E4050C2
:100A90009EA848EF05F0AD6E41509EA84DEF05F0C1
:100AA000AD6E42509EA852EF05F0AD6E3A0E9EA874
:100AB00057EF05F0AD6E1EC075F0640E766E82ECD9
:100AC00001F001C040F01EC075F00A0E766E82EC97
:100AD00001F001C041F041C075F00A0E766E82EC63
:100AE00001F000C041F01EC075F00A0E766E82EC77
:100AF00001F000C042F0036A4050360FE96E000E6C
:100B00000320EA6EEF50406E036A4150360FE96EE3
:100B1000000E0320EA6EEF50416E036A4250360F1A
:100B2000E96E000E0320EA6EEF50426E40509EA820
:100B300097EF05F0AD6E41509EA89CEF05F0AD6EAD
:100B400042509EA8A1EF05F0AD6E3A0E9EA8A6EF0A
:100B500005F0AD6E1FC075F0640E766E82EC01F08C
:100B600001C040F01FC075F00A0E766E82EC01F0F5
:100B700001C041F041C075F00A0E766E82EC01F0C2
:100B800000C041F01FC075F00A0E766E82EC01F0D5
:100B900000C042F0036A4050360FE96E000E032099
:100BA000EA6EEF50406E036A4150360FE96E000E58
:100BB0000320EA6EEF50416E036A4250360FE96E31
:100BC000000E0320EA6EEF50426E40509EA8E6EF02
:100BD00005F0AD6E41509EA8EBEF05F0AD6E4250B2
:100BE0009EA8F0EF05F0AD6E3A0E9EA8F5EF05F069
:100BF000AD6E20C075F0640E766E82EC01F001C01F
:100C000040F020C075F00A0E766E82EC01F001C053
:100C100041F041C075F00A0E766E82EC01F000C022
:100C200041F020C075F00A0E766E82EC01F000C033
:100C300042F0036A4050360FE96E000E0320EA6E60
:100C4000EF50406E036A4150360FE96E000E0320EC
:100C5000EA6EEF50416E036A4250360FE96E000EA5
:100C60000320EA6EEF50426E40509EA835EF06F02A
:100C7000AD6E41509EA83AEF06F0AD6E42509EA870
:100C80003FEF06F0AD6E3A0E9EA844EF06F0AD6E53
:100C900081503F0B216E21509EA84CEF06F0AD6EA7
:100CA0000D0E9EA851EF06F0AD6E4D2AD8B44E2A17
:0C0CB00022EF02F0FF0020EF02F0030032
:020000040030CA
:0E00000000220F0E000181000FC00FE00F4024
:00000001FF
;PIC18F452
