:020000040000FA
:040000009CEF01F080
:08000800FFFF056ED8CF06F0E2
:10001000E950076EEA50086EE150096EE2500A6E30
:10002000D9500B6EDA500C6EF350146EF450156EFE
:10003000E0500D6E000100500F6E0150106E025026
:10004000116E0350126E0450136E9DAA2BEF00F038
:100050009EBA4CEF00F00F50006E1050016E115020
:10006000026E1250036E1350046E0D50E06E0D8E32
:100070000750E96E0850EA6E0950E16E0A50E26ED0
:100080000B50D96E0C50DA6E1450F36E1550F46E9E
:10009000055006C0D8FF1000FFFF9EAA4DEF00F0EC
:1000A000AE50426E42504408D8B079EF00F0425052
:1000B0004908D8A079EF00F0450E425CFB0FD8B09C
:1000C00079EF00F0050F7CEF00F0010E836E79EF01
:1000D00000F0020E836E79EF00F0040E836E79EF6C
:1000E00000F0080E836E79EF00F0100E836E79EF4A
:1000F00000F09E9A2BEF00F0FFFFE824190FF66E38
:10010000010EF76ED8B0F72A0A00FFFFF550FA6E1D
:100110000800FFFFF550F96ECA00D200DA00E200D5
:10012000EA00FFFFEA6A750EE96EEF50D8B4A6EF59
:1001300000F0060E016E006A002EFED7012EFBD7DE
:100140007B0E006E002EFED7EF2EF3D7000CFFFFC4
:10015000FFFF800E946E8290190E756E91EC00F088
:100160008280310E006E002EFED700000000810E4E
:10017000946E37EF02F0FFFFFFFF310E006E002E8E
:10018000FED700000000000E82B0010E000AD8A4C5
:10019000DDEF00F0850E006E002EFED7000E82B05F
:1001A000010E0108D8A4DDEF00F0530E006E002E02
:1001B000FED7010E016EDDEF00F039EF02F0FFFF18
:1001C000FFFF766A6AA0E5EF00F0746A74500708D2
:1001D000D8A051EF01F0756A000E82B0010E000A3E
:1001E000D8A403EF01F0752A75506408D8B0FCEF6D
:1001F00000F06A8003EF01F0000000000000000042
:100200000000ECEF00F0310E006E002EFED7000073
:100210000000000E82B0010E000AD8A425EF01F004
:10022000070ED8807454776E010E006E7750016E01
:10023000D8B420EF01F0D8900036012E1BEF01F06A
:100240000050FF0A76164EEF01F0070ED880745466
:10025000776E010E006E7750016ED8B435EF01F065
:10026000D8900036012E30EF01F000507612000ECB
:1002700082B0010E0108D8A44EEF01F0752A755026
:100280006408D8B047EF01F06A804EEF01F000003B
:10029000000000000000000037EF01F0742AE6EFD4
:1002A00000F07650016E000CFFFFFFFF016A026A4A
:1002B000006A036A7950D8A462EF01F07850D8B48C
:1002C0007FEF01F0100E7A6ED890763677360036D2
:1002D00003367950035CD8A470EF01F07850005CCD
:1002E000D8A07AEF01F07850005ED8A003067950CC
:1002F000035ED880013602367A2E64EF01F00000EA
:10030000000CFFFFFFFF7550016A745CD8B08DEFE1
:1003100001F07450006E9AEF01F0006A080E766EDC
:10032000743600367550005CD8B0006E0136762EFB
:1003300090EF01F0000CFFFFFFFFF86AD09E0D8EDA
:10034000EA6AE96A060EC16E810EAF6E260EAC6EC9
:10035000900EAB6E176A300E356E310E366E320E61
:10036000376E330E386E340E396E350E3A6E360EE9
:100370003B6E370E3C6E380E3D6E390E3E6E486A4F
:10038000496A4A6A4B6A4C6A4D6A540E4E6E650E53
:100390004F6E6D0E506E700E516E200E526E3D0EF1
:1003A000536E200E546E300E556E566E2E0E576ED6
:1003B000300E586E200E596E5A6E5B6A520E5C6E8D
:1003C000480E5D6E200E5E6E5F6E606E3D0E616E5D
:1003D000200E626E300E636E646E2E0E656E300EF1
:1003E000666E200E676E686E696AC16AC19CC250F3
:1003F000380BC109C26E9698C69A949A94889496BE
:10040000000EC66EC76ED190800ED56ECD6A000EFE
:10041000016ECA6E000ECB6EB150480BB16E9D8A54
:10042000C00EF212800E946E000E956EFF0E926E4C
:10043000968096829684936E836A806A846A816AC3
:100440004D6A4C6A4D52D8A463EF06F04C50AE088A
:10045000D8A063EF06F0836A040E746EC80E756E42
:1004600091EC00F0742EFAD76A90A8EF00F0BCEF80
:1004700000F00152D8B415EF03F0E0EC00F001C039
:100480006DF0E0EC00F001C06EF0E0EC00F001C0B7
:100490006BF0E0EC00F001C06CF0E0EC00F001C0AB
:1004A0006FF06AA056EF02F013EF03F06E506D2468
:1004B0006B246C246F5CD8A413EF03F0716A6DC0D9
:1004C00070F070C075F0746A74506E10706E755074
:1004D000716E736A6BC072F072C075F0746A74509A
:1004E0006C10726E7550736E73507F08D8B087EFC2
:1004F00002F0FF0AD8A482EF02F072500008D8B0D0
:1005000087EF02F02D0E546E739E89EF02F0300ECD
:10051000546E73C077F072C076F0796A640E786EAC
:1005200055EC01F002C075F001C074F002C077F024
:1005300001C076F0796A0A0E786E55EC01F0005031
:10054000756E300E7524556E73C077F072C076F0FC
:10055000796A0A0E786E55EC01F002C075F001C0A0
:1005600074F002C077F001C076F0796A0A0E786EF6
:1005700055EC01F00050756E300E7524566E73C048
:1005800077F072C076F0796A0A0E786E55EC01F059
:100590000050746E300E7424586E71C077F070C0C5
:1005A00076F0796A640E786E55EC01F002C075F051
:1005B00001C074F002C077F001C076F0796A0A0ECB
:1005C000786E55EC01F00050756E300E7524636E38
:1005D00071C077F070C076F0796A0A0E786E55ECCB
:1005E00001F002C075F001C074F002C077F001C0E4
:1005F00076F0796A0A0E786E55EC01F00050756E4F
:10060000300E7524646E71C077F070C076F0796A30
:100610000A0E786E55EC01F00050746E300E7424A2
:10062000666E13EF03F015EF03F0176A1750130807
:10063000D8A032EF03F0000E016EC250C70B0110BC
:10064000C26E0C0E756E91EC00F0C284C2B426EF3F
:1006500003F0C450186E18504A26000E4B22172A79
:1006600016EF03F04BC077F04AC076F0796A140EAB
:10067000786E55EC01F001C018F04B6A4A6A176AAF
:1006800017501308D8A05CEF03F0080E016EC2509B
:10069000C70B0110C26E0C0E756E91EC00F0C28497
:1006A000C2B450EF03F0C450196E19504A26000E20
:1006B0004B22172A40EF03F04BC077F04AC076F088
:1006C000796A140E786E55EC01F001C019F04B6A8E
:1006D0004A6A176A17501308D8A086EF03F0100E65
:1006E000016EC250C70B0110C26E0C0E756E91ECFC
:1006F00000F0C284C2B47AEF03F0C4501A6E1A50EC
:100700004A26000E4B22172A6AEF03F04BC077F0FF
:100710004AC076F0796A140E786E55EC01F001C08B
:100720001AF04B6A4A6A176A17501308D8A0B0EF3C
:1007300003F0200E016EC250C70B0110C26E0C0EEA
:10074000756E91EC00F0C284C2B4A4EF03F0C45003
:100750001C6E1C504A26000E4B22172A94EF03F001
:100760004BC077F04AC076F0796A140E786E55EC7B
:1007700001F001C01CF04B6A4A6A176A175013084F
:10078000D8A0DAEF03F0280E016EC250C70B01109B
:10079000C26E0C0E756E91EC00F0C284C2B4CEEF46
:1007A00003F0C4501D6E1D504A26000E4B22172A1E
:1007B000BEEF03F04BC077F04AC076F0796A140EB2
:1007C000786E55EC01F001C01DF04B6A4A6A176A59
:1007D00017501308D8A004EF04F0300E016EC25079
:1007E000C70B0110C26E0C0E756E91EC00F0C28446
:1007F000C2B4F8EF03F0C4501E6E1E504A26000E1D
:100800004B22172AE8EF03F04BC077F04AC076F08E
:10081000796A140E786E55EC01F001C01EF04B6A37
:100820004A6A176A17501308D8A02EEF04F0380E42
:10083000016EC250C70B0110C26E0C0E756E91ECAA
:1008400000F0C284C2B422EF04F0C4501F6E1F50E7
:100850004A26000E4B22172A12EF04F04BC077F005
:100860004AC076F0796A140E786E55EC01F001C03A
:100870001FF04B6A4A6A640E9EA83CEF04F0AD6E0E
:10088000650E9EA841EF04F0AD6E3A0E9EA846EFAD
:1008900004F0AD6E54509EA84BEF04F0AD6E555071
:1008A0009EA850EF04F0AD6E56509EA855EF04F090
:1008B000AD6E3A0E9EA85AEF04F0AD6E300E9EA8B3
:1008C0005FEF04F0AD6E63509EA864EF04F0AD6E70
:1008D00064509EA869EF04F0AD6E3A0E9EA86EEFCC
:1008E00004F0AD6E18C074F0640E756E82EC01F009
:1008F00001C03FF018C074F00A0E756E82EC01F072
:1009000001C040F040C074F00A0E756E82EC01F038
:1009100000C040F018C074F00A0E756E82EC01F051
:1009200000C041F0036A3F50350FE96E000E03200E
:10093000EA6EEF503F6E0A0E756E91EC00F0036A9E
:100940004050350FE96E000E0320EA6EEF50406E06
:10095000036A4150350FE96E000E0320EA6EEF5036
:10096000416E3F509EA8B2EF04F0AD6E40509EA87D
:10097000B7EF04F0AD6E41509EA8BCEF04F0AD6E31
:100980003A0E9EA8C1EF04F0AD6E19C074F0640E6B
:10099000756E82EC01F001C03FF019C074F00A0ED0
:1009A000756E82EC01F001C040F040C074F00A0E98
:1009B000756E82EC01F000C040F019C074F00A0EB0
:1009C000756E82EC01F000C041F0036A3F50350FB4
:1009D000E96E000E0320EA6EEF503F6E036A40504E
:1009E000350FE96E000E0320EA6EEF50406E036A89
:1009F0004150350FE96E000E0320EA6EEF50416E54
:100A00003F509EA801EF05F0AD6E40509EA806EF46
:100A100005F0AD6E41509EA80BEF05F0AD6E3A0E9D
:100A20009EA810EF05F0AD6E1CC074F0640E756EDC
:100A300082EC01F001C03FF01CC074F00A0E756E2C
:100A400082EC01F001C040F040C074F00A0E756EF7
:100A500082EC01F000C040F01CC074F00A0E756E0C
:100A600082EC01F000C041F0036A3F50350FE96E9F
:100A7000000E0320EA6EEF503F6E036A4050350FC0
:100A8000E96E000E0320EA6EEF50406E036A41509B
:100A9000350FE96E000E0320EA6EEF50416E3F50B5
:100AA0009EA850EF05F0AD6E40509EA855EF05F0A2
:100AB000AD6E41509EA85AEF05F0AD6E3A0E9EA85D
:100AC0005FEF05F0AD6E1DC074F0640E756E82ECC4
:100AD00001F001C03FF01DC074F00A0E756E82EC8B
:100AE00001F001C040F040C074F00A0E756E82EC57
:100AF00001F000C040F01DC074F00A0E756E82EC6B
:100B000001F000C041F0036A3F50350FE96E000E5E
:100B10000320EA6EEF503F6E036A4050350FE96ED6
:100B2000000E0320EA6EEF50406E036A4150350F0D
:100B3000E96E000E0320EA6EEF50416E3F509EA812
:100B40009FEF05F0AD6E40509EA8A4EF05F0AD6E8E
:100B500041509EA8A9EF05F0AD6E3A0E9EA8AEEFEB
:100B600005F0AD6E1EC074F0640E756E82EC01F07F
:100B700001C03FF01EC074F00A0E756E82EC01F0E9
:100B800001C040F040C074F00A0E756E82EC01F0B6
:100B900000C040F01EC074F00A0E756E82EC01F0C9
:100BA00000C041F0036A3F50350FE96E000E03208C
:100BB000EA6EEF503F6E036A4050350FE96E000E4B
:100BC0000320EA6EEF50406E036A4150350FE96E24
:100BD000000E0320EA6EEF50416E3F509EA8EEEFEC
:100BE00005F0AD6E40509EA8F3EF05F0AD6E41509C
:100BF0009EA8F8EF05F0AD6E3A0E9EA8FDEF05F049
:100C0000AD6E1FC074F0640E756E82EC01F001C011
:100C10003FF01FC074F00A0E756E82EC01F001C047
:100C200040F040C074F00A0E756E82EC01F000C016
:100C300040F01FC074F00A0E756E82EC01F000C027
:100C400041F0036A3F50350FE96E000E0320EA6E53
:100C5000EF503F6E036A4050350FE96E000E0320DF
:100C6000EA6EEF50406E036A4150350FE96E000E98
:100C70000320EA6EEF50416E3F509EA83DEF06F014
:100C8000AD6E40509EA842EF06F0AD6E41509EA85A
:100C900047EF06F0AD6E3A0E9EA84CEF06F0AD6E33
:100CA00081503F0B206E20509EA854EF06F0AD6E91
:100CB0000D0E9EA859EF06F0AD6E496A4C2AD8B4C5
:0E0CC0004D2A22EF02F0FF0020EF02F00300A9
:020000040030CA
:0E00000000220F0E000181000FC00FE00F4024
:00000001FF
;PIC18F452
