:020000040000FA
:04000000BAEF00F063
:08000800FFFF056ED8CF06F0E2
:10001000E950076EEA50086EE150096EE2500A6E30
:10002000D9500B6EDA500C6EF350146EF450156EFE
:10003000E0500D6E000100500F6E0150106E025026
:10004000116E0350126E0450136E9DAA2BEF00F038
:100050009EBA4CEF00F00F50006E1050016E115020
:10006000026E1250036E1350046E0D50E06E0D8E32
:100070000750E96E0850EA6E0950E16E0A50E26ED0
:100080000B50D96E0C50DA6E1450F36E1550F46E9E
:10009000055006C0D8FF1000FFFF9EAA4DEF00F0EC
:1000A000AE50176E17507908D8A459EF00F0010E22
:1000B0004B6E9E9A2BEF00F0FFFFEA6A510EE96E3D
:1000C000EF50D8B471EF00F0060E016E006A002EFA
:1000D000FED7012EFBD77B0E006E002EFED7EF2E33
:1000E000F3D7000CFFFFFFFF016A026A006A036A90
:1000F0005350D8A480EF00F05250D8B49DEF00F0D8
:10010000100E546ED8905036513600360336535088
:10011000035CD8A48EEF00F05250005CD8A098EF9A
:1001200000F05250005ED8A003065350035ED88002
:1001300001360236542E82EF00F00000000CFFFF63
:10014000FFFF5150016A505CD8B0ABEF00F0505047
:10015000006EB8EF00F0006A080E526E503600369E
:100160005150005CD8B0006E0136522EAEEF00F058
:10017000000CFFFFFFFFF86AD09E0D8EEA6AE96A65
:10018000060EC16E810EAF6E260EAC6E900EAB6E7B
:10019000186A300E366E310E376E320E386E330EF0
:1001A000396E340E3A6E350E3B6E360E3C6E370E9F
:1001B0003D6E380E3E6E390E3F6E4A6A4B6A4C6A8F
:1001C0004D6A4E6A4F6AC16AC19CC250380BC10960
:1001D000C26E9698C69A949A94889496000EC66EAB
:1001E000C76ED190800ED56ECD6A000E016ECA6EBC
:1001F000000ECB6EB150480BB16E9D8AC00EF2124C
:10020000800E946E000E956EFF0E926E9680968212
:100210009684936E836A806A846A816A4F6A4E6AA2
:100220004F500108D8A02AEF05F0D8A41DEF01F027
:100230004E505D08D8A02AEF05F0836A186A18505E
:100240001308D8A03BEF01F0000E016EC250C70B9F
:100250000110C26E0A0E516E5CEC00F0C284C2B492
:100260002FEF01F0C450196E19504C26000E4D228C
:10027000182A1FEF01F04DC051F04CC050F0536AE6
:10028000140E526E73EC00F001C019F04D6A4C6A06
:10029000186A18501308D8A065EF01F0080E016E17
:1002A000C250C70B0110C26E0A0E516E5CEC00F01A
:1002B000C284C2B459EF01F0C4501A6E1A504C26D1
:1002C000000E4D22182A49EF01F04DC051F04CC0EC
:1002D00050F0536A140E526E73EC00F001C01AF025
:1002E0004D6A4C6A186A18501308D8A08FEF01F0B5
:1002F000100E016EC250C70B0110C26E0A0E516E75
:100300005CEC00F0C284C2B483EF01F0C4501B6EF9
:100310001B504C26000E4D22182A73EF01F04DC0E1
:1003200051F04CC050F0536A140E526E73EC00F052
:1003300001C01BF04D6A4C6A186A18501308D8A007
:10034000B9EF01F0180E016EC250C70B0110C26E5A
:100350000A0E516E5CEC00F0C284C2B4ADEF01F045
:10036000C4501C6E1C504C26000E4D22182A9DEFC6
:1003700001F04DC051F04CC050F0536A140E526E53
:1003800073EC00F001C01CF04D6A4C6A186A1850FA
:100390001308D8A0E3EF01F0200E016EC250C70B86
:1003A0000110C26E0A0E516E5CEC00F0C284C2B441
:1003B000D7EF01F0C4501D6E1D504C26000E4D228B
:1003C000182AC7EF01F04DC051F04CC050F0536AED
:1003D000140E526E73EC00F001C01DF04D6A4C6AB1
:1003E000186A18501308D8A00DEF02F0280E016EFD
:1003F000C250C70B0110C26E0A0E516E5CEC00F0C9
:10040000C284C2B401EF02F0C4501E6E1E504C26CE
:10041000000E4D22182AF1EF01F04DC051F04CC0F2
:1004200050F0536A140E526E73EC00F001C01EF0CF
:100430004D6A4C6A186A18501308D8A037EF02F0BA
:10044000300E016EC250C70B0110C26E0A0E516E03
:100450005CEC00F0C284C2B42BEF02F0C4501F6EFB
:100460001F504C26000E4D22182A1BEF02F04DC0E3
:1004700051F04CC050F0536A140E526E73EC00F001
:1004800001C01FF04D6A4C6A186A18501308D8A0B2
:1004900061EF02F0380E016EC250C70B0110C26E40
:1004A0000A0E516E5CEC00F0C284C2B455EF02F04B
:1004B000C450206E20504C26000E4D22182A45EFC5
:1004C00002F04DC051F04CC050F0536A140E526E01
:1004D00073EC00F001C020F04D6A4C6A19C050F076
:1004E000640E516EA0EC00F001C040F019C050F055
:1004F0000A0E516EA0EC00F001C041F041C050F076
:100500000A0E516EA0EC00F000C041F019C050F08E
:100510000A0E516EA0EC00F000C042F0036A405099
:10052000360FE96E000E0320EA6EEF50406E036A4C
:100530004150360FE96E000E0320EA6EEF50416E17
:10054000036A4250360FE96E000E0320EA6EEF5048
:10055000426E6D0E9EA8AAEF02F0AD6E790E9EA8B7
:10056000AFEF02F0AD6E6E0E9EA8B4EF02F0AD6E6E
:10057000670E9EA8B9EF02F0AD6E3A0E9EA8BEEFD0
:1005800002F0AD6E40509EA8C3EF02F0AD6E415038
:100590009EA8C8EF02F0AD6E42509EA8CDEF02F0CB
:1005A000AD6E3A0E9EA8D2EF02F0AD6E1AC050F0BA
:1005B000640E516EA0EC00F001C040F01AC050F083
:1005C0000A0E516EA0EC00F001C041F041C050F0A5
:1005D0000A0E516EA0EC00F000C041F01AC050F0BD
:1005E0000A0E516EA0EC00F000C042F0036A4050C9
:1005F000360FE96E000E0320EA6EEF50406E036A7C
:100600004150360FE96E000E0320EA6EEF50416E46
:10061000036A4250360FE96E000E0320EA6EEF5077
:10062000426E40509EA812EF03F0AD6E41509EA85E
:1006300017EF03F0AD6E42509EA81CEF03F0AD6EB5
:100640000A0E516E5CEC00F03A0E9EA825EF03F006
:10065000AD6E140E516E5CEC00F01BC050F0640ED9
:10066000516EA0EC00F001C040F01BC050F00A0E2B
:10067000516EA0EC00F001C041F041C050F00A0EF4
:10068000516EA0EC00F000C041F01BC050F00A0E0B
:10069000516EA0EC00F000C042F0140E516E5CEC04
:1006A00000F0036A4050360FE96E000E0320EA6E38
:1006B000EF50406E0A0E516E5CEC00F0036A415040
:1006C000360FE96E000E0320EA6EEF50416E036AAA
:1006D0004250360FE96E000E0320EA6EEF50426E74
:1006E00040509EA871EF03F0AD6E41509EA876EF8A
:1006F00003F0AD6E42509EA87BEF03F0AD6E3A0E54
:100700009EA880EF03F0AD6E1CC050F0640E516ED9
:10071000A0EC00F001C040F01CC050F00A0E516E79
:10072000A0EC00F001C041F041C050F00A0E516E43
:10073000A0EC00F000C041F01CC050F00A0E516E59
:10074000A0EC00F000C042F0036A4050360FE96EA2
:10075000000E0320EA6EEF50406E036A4150360FE0
:10076000E96E000E0320EA6EEF50416E036A4250BC
:10077000360FE96E000E0320EA6EEF50426E4050D5
:100780009EA8C0EF03F0AD6E41509EA8C5EF03F0E8
:10079000AD6E42509EA8CAEF03F0AD6E3A0E9EA811
:1007A000CFEF03F0AD6E1DC050F0640E516EA0ECA3
:1007B00000F001C040F01DC050F00A0E516EA0ECD8
:1007C00000F001C041F041C050F00A0E516EA0ECA3
:1007D00000F000C041F01DC050F00A0E516EA0ECB8
:1007E00000F000C042F0036A4050360FE96E000E80
:1007F0000320EA6EEF50406E036A4150360FE96EF7
:10080000000E0320EA6EEF50416E036A4250360F2D
:10081000E96E000E0320EA6EEF50426E40509EA833
:100820000FEF04F0AD6E41509EA814EF04F0AD6ED2
:1008300042509EA819EF04F0AD6E3A0E9EA81EEF2E
:1008400004F0AD6E1EC050F0640E516EA0EC00F0CE
:1008500001C040F01EC050F00A0E516EA0EC00F036
:1008600001C041F041C050F00A0E516EA0EC00F002
:1008700000C041F01EC050F00A0E516EA0EC00F016
:1008800000C042F0036A4050360FE96E000E0320AC
:10089000EA6EEF50406E036A4150360FE96E000E6B
:1008A0000320EA6EEF50416E036A4250360FE96E44
:1008B000000E0320EA6EEF50426E40509EA85EEF9D
:1008C00004F0AD6E41509EA863EF04F0AD6E42504F
:1008D0009EA868EF04F0AD6E3A0E9EA86DEF04F08E
:1008E000AD6E1FC050F0640E516EA0EC00F001C060
:1008F00040F01FC050F00A0E516EA0EC00F001C095
:1009000041F041C050F00A0E516EA0EC00F000C062
:1009100041F01FC050F00A0E516EA0EC00F000C074
:1009200042F0036A4050360FE96E000E0320EA6E73
:10093000EF50406E036A4150360FE96E000E0320FF
:10094000EA6EEF50416E036A4250360FE96E000EB8
:100950000320EA6EEF50426E40509EA8ADEF04F0C7
:10096000AD6E41509EA8B2EF04F0AD6E42509EA80D
:10097000B7EF04F0AD6E200E9EA8BCEF04F0AD6E94
:1009800020C050F0640E516EA0EC00F001C040F0A9
:1009900020C050F00A0E516EA0EC00F001C041F0F2
:1009A00041C050F00A0E516EA0EC00F000C041F0C2
:1009B00020C050F00A0E516EA0EC00F000C042F0D2
:1009C000036A4050360FE96E000E0320EA6EEF50C6
:1009D000406E036A4150360FE96E000E0320EA6E46
:1009E000EF50416E036A4250360FE96E000E03204D
:1009F000EA6EEF50426E40509EA8FCEF04F0AD6EE0
:100A000041509EA801EF05F0AD6E42509EA806EF42
:100A100005F0AD6E3A0E9EA80BEF05F0AD6E81505D
:100A20003F0B216E21509EA813EF05F0AD6E0D0E09
:100A30009EA818EF05F0AD6E4B6A040E506EFA0ECC
:100A4000516E5CEC00F0502EFAD74E2AD8B44F2AE3
:0C0A500010EF01F0FF000EEF01F00300BA
:020000040030CA
:0E00000000220F0E000181000FC00FE00F4024
:00000001FF
;PIC18F452
