:020000040000FA
:040000007DEF01F09F
:08000800FFFF056ED8CF06F0E2
:10001000E950076EEA50086EE150096EE2500A6E30
:10002000D9500B6EDA500C6EF350146EF450156EFE
:10003000E0500D6E000100500F6E0150106E025026
:10004000116E0350126E0450136E9DAA2BEF00F038
:100050009EBA4CEF00F00F50006E1050016E115020
:10006000026E1250036E1350046E0D50E06E0D8E32
:100070000750E96E0850EA6E0950E16E0A50E26ED0
:100080000B50D96E0C50DA6E1450F36E1550F46E9E
:10009000055006C0D8FF1000FFFF9EAA4DEF00F0EC
:1000A000AE50176E17504008D8B06FEF00F01750E1
:1000B0004208D8A06FEF00F01750410AD8B467EF9C
:1000C00000F0030AD8B46BEF00F06FEF00F0010E00
:1000D000836E6FEF00F0020E836E6FEF00F09E9A5A
:1000E0002BEF00F0FFFFEA6A760EE96EEF50D8B40E
:1000F00087EF00F0060E016E006A002EFED7012E7B
:10010000FBD77B0E006E002EFED7EF2EF3D7000C30
:10011000FFFFFFFF800E946E8290190E766E72ECD8
:1001200000F08280310E006E002EFED7000000002D
:10013000810E946E18EF02F0FFFFFFFF310E006E8C
:10014000002EFED700000000000E82B0010E000A53
:10015000D8A4BEEF00F0850E006E002EFED7000E74
:1001600082B0010E0108D8A4BEEF00F0530E006E5D
:10017000002EFED7010E016EBEEF00F01AEF02F066
:10018000FFFFFFFF776A6BA0C6EF00F0756A75503E
:100190000708D8A032EF01F0766A000E82B0010E97
:1001A000000AD8A4E4EF00F0762A76506408D8B0AC
:1001B000DDEF00F06B80E4EF00F0000000000000D5
:1001C00000000000CDEF00F0310E006E002EFED7D3
:1001D00000000000000E82B0010E000AD8A406EF55
:1001E00001F0070ED8807554786E010E006E7850BD
:1001F000016ED8B401EF01F0D8900036012EFCEF6B
:1002000000F00050FF0A77162FEF01F0070ED8809C
:100210007554786E010E006E7850016ED8B416EFEA
:1002200001F0D8900036012E11EF01F00050771246
:10023000000E82B0010E0108D8A42FEF01F0762A3B
:1002400076506408D8B028EF01F06B802FEF01F0F2
:100250000000000000000000000018EF01F0752A07
:10026000C7EF00F07750016E000CFFFFFFFF016A3F
:10027000026A006A036A7A50D8A443EF01F0795009
:10028000D8B460EF01F0100E7B6ED89077367836D8
:10029000003603367A50035CD8A451EF01F0795050
:1002A000005CD8A05BEF01F07950005ED8A0030697
:1002B0007A50035ED880013602367B2E45EF01F07E
:1002C0000000000CFFFFFFFF7650016A755CD8B09C
:1002D0006EEF01F07550006E7BEF01F0006A080EC2
:1002E000776E753600367650005CD8B0006E0136F9
:1002F000772E71EF01F0000CFFFFFFFFF86AD09E30
:100300000D8EEA6AE96A060EC16E810EAF6E260E88
:10031000AC6E900EAB6E186A300E366E310E376EC4
:10032000320E386E330E396E340E3A6E350E3B6E29
:10033000360E3C6E370E3D6E380E3E6E390E3F6EF9
:10034000496A4A6A4B6A4C6A4D6A4E6A540E4F6E4D
:10035000650E506E6D0E516E700E526E200E536E05
:100360003D0E546E200E556E300E566E576E2E0E8C
:10037000586E300E596E200E5A6E5B6E5C6A520ECD
:100380005D6E480E5E6E200E5F6E606E616E3D0E9D
:10039000626E200E636E300E646E656E2E0E666E9B
:1003A000300E676E200E686E696E6A6AC16AC19C03
:1003B000C250380BC109C26E9698C69A949A948816
:1003C0009496000EC66EC76ED190800ED56ECD6A23
:1003D000000E016ECA6E000ECB6EB150480BB16EAE
:1003E0009D8AC00EF212800E946E000E956EFF0E66
:1003F000926E968096829684936E836A4E6A4D6A58
:100400004E500108D8A0BDEF04F0D8A40DEF02F0C3
:100410004D505D08D8A0BDEF04F0050E756EF00ECE
:10042000766E72EC00F0752EFAD76B9089EF00F0C3
:100430009DEF00F00152D8B4F6EF02F0C1EC00F0ED
:1004400001C06EF0C1EC00F001C06FF0C1EC00F033
:1004500001C06CF0C1EC00F001C06DF0C1EC00F027
:1004600001C070F06BA037EF02F0F4EF02F06F50B4
:100470006E246C246D24705CD8A4F4EF02F0726AD0
:100480006EC071F071C076F0756A75506F10716E44
:100490007650726E746A6CC073F073C076F0756AD1
:1004A00075506D10736E7650746E74507F08D8B0AE
:1004B00068EF02F0FF0AD8A463EF02F0735000085F
:1004C000D8B068EF02F02D0E556E749E6AEF02F000
:1004D000300E556E74C078F073C077F07A6A640E8F
:1004E000796E36EC01F002C076F001C075F002C002
:1004F00078F001C077F07A6A0A0E796E36EC01F076
:100500000050766E300E7624566E74C078F073C04C
:1005100077F07A6A0A0E796E36EC01F002C076F056
:1005200001C075F002C078F001C077F07A6A0A0E57
:10053000796E36EC01F00050766E300E7624576EF0
:1005400074C078F073C077F07A6A0A0E796E36EC70
:1005500001F00050756E300E7524596E72C078F03F
:1005600071C077F07A6A640E796E36EC01F002C0E1
:1005700076F001C075F002C078F001C077F07A6AB9
:100580000A0E796E36EC01F00050766E300E76244D
:10059000646E72C078F071C077F07A6A0A0E796E74
:1005A00036EC01F002C076F001C075F002C078F0C0
:1005B00001C077F07A6A0A0E796E36EC01F00050CD
:1005C000766E300E7624656E72C078F071C077F06A
:1005D0007A6A0A0E796E36EC01F00050756E300EB4
:1005E0007524676EF4EF02F0F6EF02F0186A185007
:1005F0001308D8A013EF03F0000E016EC250C70B12
:100600000110C26E140E766E72EC00F0C284C2B499
:1006100007EF03F0C450196E19504B26000E4C2200
:10062000182AF7EF02F04CC078F04BC077F07A6AE6
:10063000140E796E36EC01F001C019F04C6A4B6A69
:10064000186A18501308D8A03DEF03F0080E016E89
:10065000C250C70B0110C26E140E766E72EC00F021
:10066000C284C2B431EF03F0C4501A6E1A504B2644
:10067000000E4C22182A21EF03F04CC078F04BC03A
:1006800077F07A6A140E796E36EC01F001C01AF038
:100690004C6A4B6A186A18501308D8A067EF03F029
:1006A000100E016EC250C70B0110C26E140E766E92
:1006B00072EC00F0C284C2B45BEF03F0C4501B6E56
:1006C0001B504B26000E4C22182A4BEF03F04CC057
:1006D00078F04BC077F07A6A140E796E36EC01F040
:1006E00001C01BF04C6A4B6A630E9EA875EF03F0C5
:1006F000AD6E630E9EA87AEF03F0AD6E3A0E9EA823
:100700007FEF03F0AD6E55509EA884EF03F0AD6E01
:1007100056509EA889EF03F0AD6E57509EA88EEFFD
:1007200003F0AD6E3A0E9EA893EF03F0AD6E300E5F
:100730009EA898EF03F0AD6E64509EA89DEF03F065
:10074000AD6E65509EA8A2EF03F0AD6E3A0E9EA866
:10075000A7EF03F0AD6E19C075F0640E766E63EC12
:1007600001F001C040F019C075F00A0E766E63EC1E
:1007700001F001C041F041C075F00A0E766E63ECE5
:1007800001F000C041F019C075F00A0E766E63ECFE
:1007900001F000C042F0036A4050360FE96E000ECF
:1007A0000320EA6EEF50406E036A4150360FE96E47
:1007B000000E0320EA6EEF50416E036A4250360F7E
:1007C000E96E000E0320EA6EEF50426E40509EA884
:1007D000E7EF03F0AD6E41509EA8ECEF03F0AD6E75
:1007E00042509EA8F1EF03F0AD6E3A0E9EA8F6EFD0
:1007F00003F0AD6E1AC075F0640E766E63EC01F016
:1008000001C040F01AC075F00A0E766E63EC01F07C
:1008100001C041F041C075F00A0E766E63EC01F044
:1008200000C041F01AC075F00A0E766E63EC01F05C
:1008300000C042F0036A4050360FE96E000E0320FC
:10084000EA6EEF50406E036A4150360FE96E000EBB
:100850000320EA6EEF50416E036A4250360FE96E94
:10086000000E0320EA6EEF50426E40509EA836EF15
:1008700004F0AD6E41509EA83BEF04F0AD6E4250C7
:100880009EA840EF04F0AD6E3A0E9EA845EF04F02E
:10089000AD6E010E766E72EC00F040509EA84EEFE9
:1008A00004F0AD6E41509EA853EF04F0AD6E42507F
:1008B0009EA858EF04F0AD6E3A0E9EA85DEF04F0CE
:1008C000AD6E010E766E72EC00F040509EA866EFA1
:1008D00004F0AD6E41509EA86BEF04F0AD6E425037
:1008E0009EA870EF04F0AD6E3A0E9EA875EF04F06E
:1008F000AD6E010E766E72EC00F040509EA87EEF59
:1009000004F0AD6E41509EA883EF04F0AD6E4250EE
:100910009EA888EF04F0AD6E3A0E9EA88DEF04F00D
:10092000AD6E40509EA892EF04F0AD6E41509EA86F
:1009300097EF04F0AD6E42509EA89CEF04F0AD6EB0
:100940003A0E9EA8A1EF04F0AD6E010E766E72EC29
:1009500000F081503F0B216E21509EA8ADEF04F0B6
:10096000AD6E0D0E9EA8B2EF04F0AD6E4A6A836ABA
:100970004D2AD8B44E2A00EF02F0FF00FEEF01F03E
:02098000030072
:020000040030CA
:0E00000000220F0E000181000FC00FE00F4024
:00000001FF
;PIC18F452
