:020000040000FA
:0400000080EF00F09D
:08000800FFFF056ED8CF06F0E2
:10001000E950076EEA50086EE150096EE2500A6E30
:10002000D9500B6EDA500C6EF350146EF450156EFE
:10003000E0500D6E000100500F6E0150106E025026
:10004000116E0350126E0450136E9DAA2BEF00F038
:100050009EBA52EF00F09DA631EF00F09EB65FEF22
:1000600000F00F50006E1050016E1150026E1250D1
:10007000036E1350046E0D50E06E0D8E0750E96E46
:100080000850EA6E0950E16E0A50E26E0B50D96ECC
:100090000C50DA6E1450F36E1550F46E055006C015
:1000A000D8FF1000FFFF9EAA53EF00F0AE501B6E6A
:1000B0001B504008D8B41A6A9E9A31EF00F0FFFF37
:1000C000C7A060EF00F0C9CF19F09E9631EF00F0A5
:1000D000FFFFEA6A810EE96EEF50D8B47DEF00F0C1
:1000E000060E016E006A002EFED7012EFBD77B0E96
:1000F000006E002EFED7EF2EF3D7BDEF00F0FFFF0E
:10010000FFFFF86AD09E0D8EEA6AE96A060EC16E9C
:10011000400EAF6E260EAC6E900EAB6E9486948839
:10012000A00EC86E360EC66E1A6A060EC16EC19C4F
:10013000C250380BC26E9698D190800ED56ECD6AA3
:10014000000E016ECA6E000ECB6EB150480BB16E40
:100150009D8A9D86C00EF212910E946E000E956ED1
:10016000836A010E1F6E1A52D8A4E3EF00F0040E4A
:10017000806FFA0E816F68EF00F0802FFAD70A0EB9
:100180001A6E1FC083FF230E9EA8C4EF00F0AD6E51
:10019000430E9EA8C9EF00F0AD6E310E9EA8CEEFC3
:1001A00000F0AD6E200E9EA8D3EF00F0AD6E1F5094
:1001B0009EA8D8EF00F0AD6E0D0E9EA8DDEF00F00A
:0C01C000AD6E1D6A1C6AB3EF00F0030076
:020000040030CA
:0E00000000220F0E000181000FC00FE00F4024
:00000001FF
;PIC18F452
